:020000040000FA
:100000008312860185018316003086000730850043
:1000100083120D20201818200928051C080020181C
:100020001428292023200928292026201D200928DA
:100030001D202C2020202C200800FF3086000800E6
:100040000030860008000130A00008000030A00049
:1000500008000518292808002030A300A30B312828
:10006000080034200D202E28E730A1000430A20023
:0C007000A10B3B28A20B38283D280800FB
:04007C000034003418
:02400E00F23F7F
:00000001FF
