:020000040000FA
:100000008312860185018316003086000730850043
:1000100083120D2025181D200928051C080025180D
:100020001628051811280130A500092805181628DA
:100030000030A500003086000928FF30860024200B
:1000400000308600242008003E200D203E200D2098
:100050003E200D203E200D203E200D203E200D2074
:100060000330A6001830A7000230A800A60B3928DC
:10007000A70B3B28A80B36283D2808000F30A60008
:100080002830A700A60B4528A70B422847280800C0
:040090000034003404
:02400E00F23F7F
:00000001FF
