:020000040000FA
:100000008312860185018316003086000330850047
:1000100083120E20192020181F200928051C080013
:100020002018152830202A20092830202D202420AF
:100030000928851C080033202D202720092824208A
:100040003620272036200800FF30860008000030C8
:10005000860008000130A00008000030A000080061
:100060000518302808008518332808002030A30020
:10007000A30B3B2808003F200E2019203828E7302A
:10008000A1000430A200A10B4628A20B4328482857
:02009000080066
:040092000034003402
:02400E00F23F7F
:00000001FF
