:020000040000FA
:100000008312860185018316003086000730850043
:1000100083120D20201821200928051C0800201813
:1000200014281E20182009281E201B2026200928FD
:100030000130A00008000030A000080005181E28AC
:10004000080026202C2029202C200800FF308600C4
:1000500008000030860008002030A300A30B3128E0
:10006000080034200D202E28E730A1000430A20023
:0C007000A10B3B28A20B38283D280800FB
:04007C000034003418
:02400E00F23F7F
:00000001FF
